:020000040002F8
:10700000504F0220A5740200AD740200AF7402005C
:10701000B1740200B3740200B574020000000000F5
:10702000000000000000000000000000B774020033
:10703000B974020000000000BB740200BD740200BD
:107040005576020065760200FD790200BF740200E9
:10705000BF740200BF740200BF740200BF7402005C
:10706000BD780200ED780200C9790200BF74020009
:10707000BF740200BF740200BF740200BF7402003C
:10708000BF740200D9760200BF740200BF74020010
:10709000BF740200BF740200E9760200BF740200F0
:1070A000BF740200BF740200BF740200BF7402000C
:1070B000BF740200BF740200000000000000000066
:1070C000BF740200BF740200BF740200BF740200EC
:1070D000BF740200BF740200BF740200097A02008C
:1070E000BF740200BF740200BF7402000000000001
:1070F00000000000BF74020000000000BF74020026
:10710000000000000000000000000000000000007F
:10711000000000000000000000000000000000006F
:10712000000000000000000000000000000000005F
:10713000000000000000000000000000000000004F
:10714000000000000000000000000000000000003F
:10715000000000000000000000000000000000002F
:10716000000000000000000000000000000000001F
:10717000000000000000000000000000000000000F
:1071800000000000000000000000000000000000FF
:1071900000000000000000000000000000000000EF
:1071A00000000000000000000000000000000000DF
:1071B00000000000000000000000000000000000CF
:1071C00000000000000000000000000000000000BF
:1071D00000000000000000000000000000000000AF
:1071E000000000000000000000000000000000009F
:1071F000000000000000000000000000000000008F
:10720000DFF80CD000F0CAF900480047AD3A03009F
:10721000504F022030B4044654E8000F0D4644E8B5
:107220000053002BF8D1156030BC704730B40446D1
:1072300054E8000F40EA010544E80053002BF7D161
:10724000156030BC704730B4044654E8000F00EAC3
:10725000010544E80053002BF7D1156030BC70479E
:1072600030B4044654E8000F80EA010544E80053B6
:10727000002BF7D1156030BC704730B4044654E899
:10728000000F00EB010544E80053002BF7D1156017
:1072900030BC704730B4044654E8000FA0EB010541
:1072A00044E80053002BF7D1156030BC704770B430
:1072B00004464FF0000054E8006F0D68AE4207BF6F
:1072C00044E80023012044E800630E60002B1CBF4B
:1072D0000020F0E770BC704730B4044654E8000F5B
:1072E00088422CBF451A054644E80053002BF5D1CF
:1072F000156030BC7047000030B450E8012F93B2E5
:10730000C48923448489A34228BF1B1B0489A34248
:1073100002BFBFF32F8F002007E0C3EA020340E85B
:107320000134002CE9D14FF001000A6030BC7047F5
:1073300050E8012FC2EA024240E801210029F7D1BA
:10734000704730B450E8022F1FFAA2F3C488A3425A
:1073500002BFBFF32F8F00200DE0C489234484892E
:10736000A34228BF1B1BC2EA034340E80234002C9F
:10737000E8D14FF001000A6030BC704750E8022F9E
:10738000C2EA224240E802210029F7D170470346B1
:1073900053E8022FD988B2EB324F4FF0000017BFED
:1073A00092B241EA014142EA014104E05A68B2EB7B
:1073B000324F08BF012043E80212002AE8D170478B
:1073C00030B4044654E8000F0D4644E80053002B47
:1073D000F8D1156030BC704730B4044654E8000F53
:1073E00040EA010544E80053002BF7D1156030BC9A
:1073F000704730B4044654E8000F00EA010544E841
:107400000053002BF7D1156030BC704730B40446F0
:1074100054E8000F80EA010544E80053002BF7D13F
:10742000156030BC704730B4044654E8000F00EBE0
:10743000010544E80053002BF7D1156030BC7047BC
:1074400030B4044654E8000FA0EB010544E80053B3
:10745000002BF7D1156030BC704770B404464FF074
:10746000000054E8006F0D68AE4207BF44E80023F7
:10747000012044E800630E60002B1CBF0020F0E7F1
:1074800070BC704730B4044654E8000F88422CBFEB
:10749000451A054644E80053002BF5D1156030BC71
:1074A000704700000648804706480047FEE7FEE7B1
:1074B000FEE7FEE7FEE7FEE7FEE7FEE7FEE7FEE7A4
:1074C000ED7602000172020040EA01039B0703D03F
:1074D00009E008C9121F08C0042AFAD203E011F813
:1074E000013B00F8013B521EF9D27047D2B201E0D5
:1074F00000F8012B491EFBD270470022F6E710B5B9
:1075000013460A4604461946FFF7F0FF204610BD11
:10751000421C10F8011B0029FBD1801A704730B5BE
:1075200004460020034600E05B1C934203D2E05C6B
:10753000CD5C401BF8D030BD2DE9F05F0546002042
:1075400092469B4688460646814640241BE02846D4
:1075500041464746224600F042F853465A46C01A72
:10756000914110D311461846224600F029F82D1AF1
:1075700067EB01084F4622460120002100F020F869
:1075800017EB00094E41201EA4F10104DFDC484640
:1075900031462A464346BDE8F09F0000064C074DA1
:1075A00006E0E06840F0010394E8070098471034D3
:1075B000AC42F6D3FFF728FE6C8F03008C8F0300DC
:1075C000202A04DB203A00FA02F1002070479140A3
:1075D000C2F1200320FA03F3194390407047202A98
:1075E00004DB203A21FA02F00021704721FA02F36D
:1075F000D040C2F12002914008431946704770B54F
:107600008C1810F8015B15F0070301D110F8013B4D
:107610002A1106D110F8012B03E010F8016B01F8D4
:10762000016B5B1EF9D12B0705D40023521E0DD42C
:1076300001F8013BFAE710F8013BCB1A921C03E07A
:1076400013F8015B01F8015B521EF9D5A142D8D3B2
:10765000002070BD10B50DF061FBBDE810400DF0CD
:10766000E3BA0000F8B54FF482700DF031F8174D11
:107670000126174C002748B11648076000680090A3
:107680002078042802D1A07A00B16E604FF4867091
:107690000DF01EF830B10F48083007600068009008
:1076A0000EF0B6FD4FF480700DF012F800280CD0EB
:1076B0000848001F0760006800902078042804D163
:1076C000A07A002801D0EE602E60F8BD0090004046
:1076D000089901200411004002490248091F096865
:1076E000006808473C9A01200DF09EB830B54FF075
:1076F00080520023D2E94C10082906D1CC06C4F8E8
:107700000C31C4F81031614C2360082955D1604B0D
:107710001B68604C23605E4B1B1D1B68241D23608F
:107720005B4B08331B68241D2360594B0C331B68CB
:10773000241D2360564B10331B68241D2360544BBB
:1077400014331B68241D2360514B18331B68514CA4
:10775000203423604E4B1C331B68241D23604C4B8C
:1077600020331B68241D2360494B24331B68241DD0
:107770002360474B28331B68241D2360444B2C3364
:107780001B68241D2360424B30331B68414C40343E
:1077900023603F4B34331B68241D23603C4B38333C
:1077A0001B68241D23603A4B3C331B68241D236057
:1077B000374B40331B68241D2360082904D1030084
:1077C00002D1364C344B2360082904D1030002D186
:1077D000334CFB232360082908D1030006D1314B29
:1077E00092F858521C6865F303041C60082904D100
:1077F000030002D12C4C8B012360082906D12B48B1
:107800000168C90702D06FF00101016028480168D2
:1078100041F470010160BFF34F8FBFF36F8FD2E966
:107820004C104FF01022082906D1042804D9D2F8B0
:107830000802164920310860D2F80002002803DB54
:10784000D2F8040200281FDA01200EF073FA122188
:10785000C2F8001217480368002BFCD0C2F80412CB
:1078600001680029FCD000200EF064FABFF34F8FAE
:107870000F487C380168104A01F4E061114301604F
:10788000BFF34F8F00BFFDE730BD0000380500405B
:107890000404001020C50040488103008C560040BD
:1078A00018F50040E40E00404096024000040040FD
:1078B00088ED00E000E401400400FA0510B5002066
:1078C0000DF06BF8084C0146206A0DF06CF80028AA
:1078D00008D000200DF061F80146206ABDE8104094
:1078E0000DF066B810BD00000899012070B50020A9
:1078F0000DF053F8314C014620460DF054F8304D50
:107900004FF4803140B320460DF058F820B300F01A
:1079100093FBE97A19B15F2811D900200DE0294ABB
:107920000021126893B2120C0F2B02D9022A00D246
:1079300001215F2800D311B101200FF087FB00F077
:1079400073FB01266660E66000200DF026F8014614
:1079500020460DF02DF8266001200DF01EF801469E
:1079600020460DF020F818B34FF40036314620467B
:107970000DF024F8E0B100F05FFBE97A19B15F285F
:1079800006D3002002E05F2802D201200FF05EFB48
:1079900000F04AFBC4F8086301200CF0FEFF01462A
:1079A00020460DF005F805490020091DC1F84005E5
:1079B000BDE87040092000F08FB800000090004042
:1079C00008990120741500400A48D0F84411012993
:1079D0000ED1D0F8041389030AD50021C0F8441150
:1079E0000121C160044842790AB10BF03DBE8171AA
:1079F0007047000000A00040149B0120014800686F
:107A000000470000889901202DE9F0411A48D0F87C
:107A10000453002601240FE095FAA5F0B0FA80F790
:107A2000B80000F580700DF06FF810B104FA07F09F
:107A3000064304FA07F08543002DEDD1C6F3C05785
:107A400026F40005DFF834800AE000BF95FAA5F0BF
:107A5000B0FA80F658F82600804704FA06F085430D
:107A6000002DF3D110F086FC002F03D0BDE8F041CB
:107A70000BF05CBBBDE8F08100700240DC890300C4
:107A8000C11700EBD161074B4A1153F8222021F0B6
:107A90001F01411A01208840024201D00120704795
:107AA0000020704700E100E00FB41CB50246002042
:107AB00007AC00290BD0491ECDE90021054B6A46D1
:107AC0002146069800F054F8009A002111701CBC61
:107AD0005DF814FBD37F0200002809DB00F01F02D1
:107AE000012191404009800000F1E020C0F880129F
:107AF0007047002809DB00F01F0201219140400976
:107B0000800000F1E020C0F8001170474907090E1D
:107B1000002804DB00F1E02080F80014704700F03A
:107B20000F0000F1E02080F8141D704702E008C843
:107B3000121F08C1002AFAD170477047002001E0E7
:107B400001C1121F002AFBD170470000012120282B
:107B500003DA81400548014003E0402802DA20387A
:107B6000814009B10120704700207047FC06FFBD2D
:107B70002DE9FF4F8DB00F460546002606E025286B
:107B80000BD0DDE90F1290476D1C761C2878002879
:107B9000F5D111B03046BDE8F08F0024A246A146D1
:107BA0000122EC4900E0044315F8013F203B02FAB2
:107BB00003F00842F7D128782A2810D06FF02F025E
:107BC0002878A0F13001092914D80AEB8A0102EBC8
:107BD000410144F0020400EB010A6D1CF0E701CF03
:107BE0005FEA000A03D544F40054CAF1000A44F0E5
:107BF00002046D1C28782E2817D115F8010F44F0C7
:107C000004042A280ED06FF02F022878A0F130014A
:107C100009290AD809EB890102EB410100EB0109AE
:107C20006D1CF2E757F8049B6D1C28786C280FD068
:107C300006DC4C2817D068280DD06A2814D104E03F
:107C4000742810D07A280FD10DE044F400140AE013
:107C500044F4801401E044F440146978814202D174
:107C600004F580146D1C6D1C2A786E2A1FD00CDC64
:107C7000632A31D004DC002A8BD0582A11D1A3E02A
:107C8000642A68D0692A0CD165E0732A2ED004DCFE
:107C90006F2A73D0702A04D19BE0752A6FD0782A9E
:107CA0006ED01046DDE90F129047761C50E1C4F308
:107CB0000250022806D0032809D0042801CF09D099
:107CC000066045E101CFF117C0E9006140E101CF55
:107CD00006803DE106703BE117F8040B8DF80000CB
:107CE00000208DF80100EB46012003E057F804BBAB
:107CF0004FF0FF3061074FF0000102D40DE008F1B2
:107D00000101884649450FDA8045F8DB1BF8081069
:107D10000029F4D108E008F1010188468142FADB2C
:107D20001BF808100029F6D1DDE90F23AAEB0800A3
:107D30008146214600F036F9304400EB080604E0A5
:107D4000DDE90F121BF8010B9047B8F10108F7D2DB
:107D500021464846F7E00A21C4F302534FF0000BD6
:107D60000891022B04D001CFC117032B09D00AE0E0
:107D7000FF1D27F00707F7E8020108E032E01FE0E7
:107D800020E000B2C117042B01D140B2C117031E7D
:107D900071F1000307DA4FF0000CD0EB0C006CEB34
:107DA00001012D2302E0230504D52B238DF8243077
:107DB000012303E0E30701D02023F7E7984658E0CA
:107DC0000A2110E010210EE010204FF0000B089067
:107DD0000CE010214FF0000B44F004044FF00809B0
:107DE000089103E008214FF0000B0891C4F30253FF
:107DF000022B04D001CF0021032B06D006E0FF1D8B
:107E000027F00707F7E8020103E080B2042B00D156
:107E1000C0B24FF0000823072BD5702A07D0DDF839
:107E200020C08CF0100C5CEA0B0C05D00EE0402357
:107E30008DF82430012308E050EA010306D03023F6
:107E40008DF824308DF8252002239846DDF820C0D7
:107E50008CF0080C5CEA0B0C0BD150EA010301D149
:107E6000630706D530238DF824304FF00108A9F1BF
:107E70000109582A04D038A20B9208AA0A920BE0F2
:107E80003AA2F9E75B46089AFFF756FB0B9B9B5C0F
:107E90000A9A521E0A92137050EA0102F2D10A980D
:107EA000ADEB000000F1200B600702D524F4803414
:107EB00001E04FF00109D94502DDA9EB0B0000E01C
:107EC000002000EB0B0141440890AAEB010AE003FB
:107ED00006D4DDE90F232146504600F063F806443E
:107EE0004FF0000908E009A911F80900DDE90F12B7
:107EF000904709F10109761CC145F4DBE0030CD57C
:107F0000DDE90F232146504600F04CF8064404E01A
:107F1000DDE90F1230209047761C0899481E089022
:107F20000029F5DC08E00A980A990078491C0A91B2
:107F3000DDE90F129047761CBBF10001ABF1010B9C
:107F4000F1DC21465046DDE90F2300F019F8064424
:107F50006D1C1BE6092801003031323334353637C9
:107F60003839616263646566000000003031323385
:107F70003435363738394142434445460000000025
:107F80002DE9F041044600251E461746880404D416
:107F900005E039462020B0476D1C641EF9D52846FF
:107FA000BDE8F0812DE9F041044600251E469046CB
:107FB000C80301D5302700E02027880404D505E058
:107FC00041463846B0476D1C641EF9D52846BDE8C9
:107FD000F0814A68002A06D00A68531C0B601070B2
:107FE0004868401E486070471CB50E480D4C90F81C
:107FF00024002034C000207000206070A070204653
:108000000BF0B2FCE0700420ADF8040000220094F4
:10801000114668460EF016FF002802D0002000F03E
:1080200041F81CBD149B01200248012101648163B9
:10803000704700000010004006480021C0F81C11E5
:1080400001214161D0F81C110029FBD002480068D1
:10805000C0B27047001000404815004038B50446D3
:1080600000208DF80000684600F0FEFF0A488442B8
:108070000CD0BFF34F8F09480168094A01F4E06151
:1080800011430160BFF34F8F00BFFDE79DF8000073
:1080900001F00EF838BD0000FECADDBA0CED00E0BC
:1080A0000400FA050EB500210091CDE901106A46E1
:1080B00044F20100FFF7D2FF0EBD00002DE9F84F9A
:1080C0002C4C8146924660880E4681424FD800274C
:1080D0004FF6FF788DF80070684600F0C5FF2278F3
:1080E0006078A188884201DA401C00E00020C0B21C
:1080F000904204D19DF8000000F0DAFF35E0657889
:108100006078884201DA401C00E00020607020782E
:108110006278824201D3101A02E0081A1044401C0F
:10812000E18880B2884200D9E0809DF8000000F02C
:10813000BFFF454519D0E068B9F1000F40F835A000
:108140000DD066B161882069324605FB01004946C1
:10815000FFF7BAF9E06800EBC500868002E000EBAB
:10816000C50087800020BDE8F88F0420FBE70920C8
:10817000F9E70000A099012010B50F4C03E0401C66
:1081800000E000202070A068002814D120786178D9
:10819000814210D0227861882069E36802FB0100E7
:1081A00003EBC20153F83220898890472078A188D8
:1081B0008842E6DAE3E710BDA099012030B5CB0094
:1081C00008339DB293074FF0000401D0072030BD63
:1081D000054BDA602A441A615C701C7058809980E3
:1081E000DC80002030BD0000A099012008B50020EF
:1081F0008DF80000684600F037FF05498868421C8A
:1082000001D0401C88609DF8000000F051FF08BDBF
:10821000A0990120074801784078064A8842928850
:1082200001D3401A02E0511A0844401C101A80B2CF
:1082300070470000A099012008B500208DF80000CB
:10824000684600F011FF0548816809B1491E816048
:108250009DF8000000F02CFF08BD0000A09901204F
:1082600001480AF0E3BB0000C099012010B55AB1E3
:1082700000684FF0FF3401294261C0E9024400D098
:1082800000210161002010BD072010BD38B5114844
:1082900008235822416800910F4900680BF07AFCCE
:1082A000002815D10D4A69460D480AF0C3FB0400A9
:1082B0000ED101210A480AF00AFC0123094A194695
:1082C00007480AF08BFB0649012008390870204650
:1082D00038BD0000788A030060230220B9640300DF
:1082E000C0990120FFFF7F00F8B50446002617461D
:1082F0000D468DF80060684600F0B6FED4E9020134
:10830000C04370EA010005D09DF8000000F0D0FEE7
:108310000020F8BD0BF058F840197141C4E9020182
:108320009DF8000000F0C4FEA761206900B125613E
:108330002146BDE8F84000200FF0D4BB70B50546DB
:108340000548046905E02946204608F049FE2068F2
:108350000468002CF7D170BDDC99012070B5094884
:1083600004690CE0267A002505E02946204600F045
:10837000D9FC6D1CEDB2B542F7D320680468002C1F
:10838000F0D170BDDC99012070B50A4804690DE098
:10839000267A002506E000222946204600F000FD4E
:1083A0006D1CEDB2B542F6D320680468002CEFD105
:1083B00070BD0000DC99012070B508490546062013
:1083C0000C6907E02946204608F00AFE062803D17A
:1083D00021680C68002CF5D170BD0000DC990120EB
:1083E0007CB504680B46154694F820100C34C90778
:1083F00005D0A16929B1206AA0B311207CBD082055
:108400007CBDE16EA9420CD31846A16EFFF75CF863
:10841000E06E401BE066A06E65672844A066002001
:108420007CBDC4E906320AF0A6FA05460F48006989
:10843000CDE90004E26E6AB1A16EA069FFF744F8CD
:10844000E16EE069401AE061A0690844A061002083
:10845000C4E91B016946284600F072FA0028DFD102
:1084600092207CBDFFE7C4E90832F9E7E48A030003
:108470003EB50D460168144691F8201011F0010F29
:108480000BD00AF06FFAA10609D000210095CDE9C2
:108490000141694600F07AFA3EBD08203EBD01491F
:1084A000896AF3E7E48A0300F8B5044600250FE083
:1084B000002705E0007800F057FA08B11120F8BD58
:1084C0003946781CC7B2304600F09CF80028F1D13C
:1084D0002946681CC5B2204600F0A6F80600E7D180
:1084E00000250DE0002703E00078214600F041FA66
:1084F0003946781CC7B2304600F084F80028F3D122
:108500002946681CC5B2204600F08EF80600E9D165
:10851000074800E0086801680029FBD104600548AD
:108520006946806900906068026820469047F8BDFF
:10853000EC9901208C8A03002DE9F04F87B04FF0B1
:1085400000081D46934689460446DDF840A046468D
:10855000CDF80C8000E0761C60680123002247689B
:10856000214603A8B8470028F5D140468DF8008081
:108570000027B84601903BE0606801236A46D0F8C6
:1085800004C0214601A8E0476068012305AAD0F88D
:1085900004C0214601A8E0479DF8141049451AD1AE
:1085A000D84514D19DF80000CAF8000005F8010B69
:1085B0006A1C85F8009060689DF800302146456887
:1085C00001A89B1EA847002007B0BDE8F08F08F166
:1085D000010000F0FF0860689DF800300022D0F82C
:1085E00004C0214601A89B1EE0479DF800000744F7
:1085F000B742C1D30520E7E7014800697047000092
:10860000DC99012042788A4201D8002070478278A4
:1086100010440844704742788A4201D800207047CD
:108620008278104408447047027A8A4201D80020B8
:10863000704701EB4101093008447047027A8A42D1
:1086400001D80020704701EB410109300844704710
:1086500002484078002800D001207047DC990120B2
:1086600010B5002000F058F9BDE81040802000F05F
:1086700053B910B5002000F051F9BDE8104080203A
:1086800000F04CB970B50D460146287806240B2839
:1086900013D007DC07284CD2DFE800F04B0D0F1198
:1086A0004B2739000C2825D00D2825D00E282CD09A
:1086B00085283ED110E0032014E0002439E024484E
:1086C0000BF0A7FA0028F8D0224801210160BFF37F
:1086D0006F8FBFF34F8FF0E71D48001F007803280E
:1086E00027D104200FF0AAFD23E0084600F050F83F
:1086F00004461EE0002005E01748006810F0010F56
:1087000003D002200FF09AFDD7E70120FAE7EB78BB
:10871000032B0ED00E48001D02683AB10021016003
:10872000416818469047040005D000E00E240DF083
:1087300025FA204670BD0FF079FD28B1A8780028F1
:10874000F7D10DF0F0F9F4E70DF0EAF9F1E70000E8
:10875000109A01205C70024038040040024A014631
:10876000D2E90002104700001825022070B50C461F
:1087700005460DF0CFF9A84201D0102070BD034886
:10878000D4E90012C0E90212002070BD0C9A012049
:108790007FB5054605208DF8000006240DF1010087
:1087A0000DF0C4F90FF042FD2949002008609DF842
:1087B000010010F01F0006D001280FD0022826D09B
:1087C000032833D106E0694628460EF0F5FC04463E
:1087D00006282AD16846FFF7EFFD25E09DF8050041
:1087E00003A900F0BBFA050008D06A469DF80C10FA
:1087F00000F094FA0446062802D016E0102415E092
:108800006A469DF80C1028460EF03EFE0CE09DF8DE
:108810000500010705D0694600F05CF8044606280B
:1088200003D168460EF046FD044624B10DF0A6F9CA
:1088300004B0204670BD0FF0F9FC30B10DF06AF9BC
:108840000028F5D10DF06FF9F2E70DF069F9EFE7C7
:10885000149A01207FB5C08814460E46A04201D26A
:10886000054600E01546844207D280200CF08EFFBA
:10887000B4FBF0F100FB114080B100200096CDE97F
:10888000015000208DF80C0003A800F0EDFB6946B4
:10889000802000F07BF8040002D006E00120EDE724
:1088A00005498020FFF762FF04469DF80C0000F0A8
:1088B000FFFB04B0204670BD208B030008B14021AF
:1088C00001600148704700006C2502200CF052BE88
:1088D0000CF06CBE10B50C46010600F00F02092A20
:1088E00009D200F00BF8006828B141680A682146F7
:1088F000BDE810401047102010BD0000010600F038
:108900000F0001D5034901E00249483101EBC000E5
:1089100070470000D02402200CF088BE10B5044639
:1089200000F00F00082805D220460CF0A1FE2046DA
:108930000CF05CFF2046BDE810400CF0A7BE000024
:1089400070B50C4605460CF0E3FE18B105480078FA
:10895000022801D0082070BD21462846BDE870409D
:108960000CF0D8BEDC99012010B5FFF7C7FF0068F6
:1089700010BD10B50C46FFF7C1FF04601CB1616863
:108980000968416010BD0021FBE7000070B50C468E
:1089900005460CF0BDFE18B105480078022801D04C
:1089A000082070BD21462846BDE870400CF04EBF3F
:1089B000DC9901202DE9FC41044600782E4D4FF052
:1089C000000805280BD12D4800682C49C0B2091FAA
:1089D000096811F0FF0F04D1052802D1284C207836
:1089E00038B3274F6946243F386A0BF0E6F8060093
:1089F0001DD0206830608DF8048001A800F034FBA1
:108A00006888E968401A401CF0801B4800210C303F
:108A10000BF00DF9B0809DF8040000F049FB6946A9
:108A2000386A0BF0EBF8014620460FF0E7FEBDE890
:108A3000FC81AE6905E031686088896888473068E4
:108A40004668002EF7D18DF8048001A800F00CFBD9
:108A5000E86808B960886880074801210C300BF08D
:108A6000DBF89DF8040000F023FB012120460FF005
:108A7000C5FEE868DBE70000DC9901208474024051
:108A8000B08A030070B5774C054601782078092933
:108A90007BD008DC092979D2DFE801F06A84B28D45
:108AA0009FBBC283D700822927D017DC0A296ED04A
:108AB0000F296DD080293BD0812972D16A48FFF7F8
:108AC0004DFE6948FFF73AFC0D200FF0A5FEFFF7B9
:108AD00045FCFFF7C5FD606950B906E0832931D038
:108AE000842937D085295CD193E06048007A00B1B1
:108AF00001200DF047F801207EE0FFF72FFC0DF07C
:108B000067F800200EF032FE5748401CFFF716FCB5
:108B10005548401CFFF722FE0E200FF07DFE207806
:108B200000F088FA00283CD0BDE870400BF05CBA39
:108B3000052803D0062803D0072832D102205BE0A5
:108B4000082059E003282CD10DF066F8002828D021
:108B5000042051E0032805D10DF05EF810B1042087
:108B60000EF004FE0DF0B8F800281AD0062043E0FD
:108B7000032801D0082803D13B48801CFFF782FF5F
:108B800000200FF049FE646909E060E009E060E060
:108B900044E02946204608F023FA20684468002C67
:108BA000F7D170BDFFF7DAFBFFF763FD02200EF08F
:108BB000DDFD012005E0082809D005200EF0D6FDD6
:108BC00003200FF029FE2846FFF7C8FD44E00220ED
:108BD0000EF0CCFD0CF048FFF2E703200FF01CFE76
:108BE0002148C01CFFF7BAFD1F48C01CFFF7A6FBB9
:108BF00020780628A2D10720BDE870400EF0B6BD4F
:108C000003200EF0B3FD02200FF006FE2846FFF70A
:108C100095FB2846BDE87040FFF7A0BD0F2019E086
:108C2000A878FFF76BFED0E9002329461046984745
:108C30000028B6D0A8780107B3D000F00F010829AA
:108C4000AFD2BDE870400CF0ADBD082002E00920B5
:108C500000E00A200FF0E0FD2846BDE87040FFF775
:108C60006DBB0000DC9901209D8A03006025022075
:108C7000FFF7A0BE2DE9FC41234C00250095234EB3
:108C8000A0684FF4006728B9211D306A0AF0ABFFD5
:108C9000A060C0B1818869B1C188B94200D3C580E4
:108CA000C188ADF80210C188491CC1808188491E65
:108CB000818022E0FFF7E6FE1349306A091D0AF0C1
:108CC00087FFA5601CE0E06800281AD08DF80450EA
:108CD00001A800F0C9F96088B84200D365806088B7
:108CE000ADF80200401C6080074801210C300AF0FA
:108CF000A3FF9DF8040000F0DBF96846FFF7C2FE11
:108D00000120BDE8FC810000DC9901208C8A030071
:108D10000148FFF74FBE00008C8A030011464268ED
:108D20001368184770B5044640680D46C2680AB11A
:108D30002046904720462946FFF776FC05464678B0
:108D4000002408E021462846FFF75CFC00780CF080
:108D50006DFC641CE4B2B442F4D370BD2DE9F04163
:108D600080460E480E46056914E02F7A00240DE077
:108D700021462846FFF758FC0178414504D106B149
:108D800034702846BDE8F081641CE4B2BC42EFD3E5
:108D900028680568002DE8D10020F3E7DC99012060
:108DA00070B50446406815460E4683681BB12046E0
:108DB0009847062803D1204631460DB1072070BDE3
:108DC000FFF732FC05464678002408E02146284695
:108DD000FFF718FC0078FFF7A1FD641CE4B2B44271
:108DE000F4D3002070BD034600205A681269002A9F
:108DF00001D01846104770472DE9F8432E4C054620
:108E000008234FF484722B49206A0AF0C3FE10B184
:108E10000320BDE8F88329480CF02CFE0028F8D187
:108E2000274908700861486148212648FEF765FB1C
:108E3000244848214830FEF760FB224878307DB155
:108E400095E80E00183080E80E0000200BF050F975
:108E500018B1852801D0FFF725F91B4D002611E038
:108E600004F138010EC9EDE7002703E00078294638
:108E7000FFF77FFD3946781CC7B24046FFF7C2FBBB
:108E80000028F3D13146701CC6B22846FFF7CCFB50
:108E90005FEA0008E8D1606800906946284608F05B
:108EA0009FF8040003D00CF00FFF2046B1E700202C
:108EB000AFE70000C82302208C8A0300718C0200F7
:108EC000DC990120D0240220608B030030B10128FE
:108ED00007D0022808D10548FFF76CBD03480838C1
:108EE000FAE70248001FF7E770470000BC8A03005A
:108EF00010B50CF007FE10B10CF0FAFD08B1082017
:108F000010BD04480BF06AF908B1FFF7CBF8002058
:108F100010BD0000C08A030070B50C460F4901EB7C
:108F2000800555F82400017831B10020FFF7C6FC18
:108F3000002255F8241006E0801C70BD521CD2B2ED
:108F4000491C20F812300B78002BF7D1022101EBDD
:108F50004201C9B241F44071018070BD209A0120E4
:108F600070B54FF0805086B0D0F8A810D0F8A400AB
:108F700089B241F44043009009A20D2101A8FEF7F7
:108F800093FD01AD0024094E02E0285D3055641CBC
:108F90002846FEF7BDFAA042F7D806B070BD000023
:108FA000253034582530385800000000D0250220E4
:108FB000074803E0016811F0010F07D00168C1F311
:108FC00040010029F6D00348FFF7F4BC70470000C9
:108FD00038040040918A0300034808B58068009077
:108FE0006846FFF7E7FC08BD8C8A030030B44FF0F9
:108FF000000180B10D4B002213F8124084420ED1C3
:1090000003EB4200407870B1094A02EB800252F84B
:10901000212042B100E0002030BCFFF77DBF521C90
:10902000D2B2062AE8D330BC00207047CF8B0300B1
:10903000209A0120092808D2DFE800F00707050779
:109040000705050505000120704700207047092825
:1090500008D2DFE800F00707050707070707050044
:10906000012070470020704730B5EFF3108172B6D1
:109070000D4A9468012324B10370002900D162B61F
:1090800030BD93604FF0E023D3F88051074C25406A
:109090001560C3F88041D3F8844154605A17C3F86F
:1090A000842100220270E8E7E0250220FC06FFBDD3
:1090B0000B498A68002A11D000280FD1EFF31080E5
:1090C00072B60B684FF0E022C2F800314B68C2F86C
:1090D000043100228A60002800D162B67047000087
:1090E000E025022070B5054608680C46411C04D0F6
:1090F0000BF0D6F920680BF086F96068411C02D0AD
:1091000000210BF06EF92968A069C1F82405607D83
:10911000227D29681043C1F86C05D4E90012286843
:10912000C0F81425C0F80C15207D012814D1A068C2
:10913000411C02D000210BF054F9E068411C04D01E
:109140000BF0AEF9E0680BF05EF9D4E90212286882
:10915000C0F80825C0F8101570BD70B50546086840
:109160000C46411C04D00BF0A5F920680BF055F912
:109170006068411C02D000210BF03CF92968A0690D
:10918000C1F82405607D217D2A680843C2F86C057A
:10919000D4E900122868C0F80C15C0F81425207D09
:1091A000012814D1A068411C02D000210BF022F943
:1091B000E068411C04D00BF07DF9E0680BF02DF95C
:1091C000D4E902122868C0F80825C0F8101570BD4F
:1091D000102802D31038C0B2704740F080007047AA
:1091E0002DE9FC471D46070090460E460AD036B1D1
:1091F0000024019438780DF10409692804D007206F
:10920000BDE8FC870E20FBE70120134601904A468B
:1092100038460EF089FF0028F2D12B464A463146E7
:109220003846009407F017FF0028E9D12B68EBB30C
:109230000025D8F800002C4624281FD00CDC21285B
:1092400015D004DC01281BD020281DD10DE02228D8
:1092500010D0232818D10FE0402813D041282DD05A
:10926000A0282DD0A1280FD12CE0184D00E0184DDA
:109270009C1C09E0174DFBE7174DF9E7174DF7E781
:10928000174D00E0174D1C462038032806D84A46E3
:10929000314638460EF080FF0028B1D123464A46B9
:1092A0003146384600950AF00DF800E001E000284C
:1092B000A6D10198B04207D00920A1E70A4DE2E704
:1092C0000A4DE0E70A4DDEE7002099E7B7A002006B
:1092D00021D002008DE402004FCD020061F80200AF
:1092E0000193020051A00200CD9F0200F7E10200AD
:1092F000E9E1020013460A46014669200DF058BA1A
:1093000018B112B10BB10EF047BF0E20704738B53F
:1093100068B162B15BB11C466B460EF03DFF0028A0
:1093200004D19DF8001001F00101217038BD0E201C
:1093300038BD08B551B14BB140B1007800F0010023
:109340008DF8000068460EF034FF08BD0E2008BD01
:109350002DE9F84316465FEA00082BD056B34BB30D
:10936000164F1C460D46009709F0CAFF002822D16F
:10937000631C324629464046009709F0C1FF002889
:1093800019D1A31C3246294640460EF005FF00289D
:1093900011D1E31C3246294640460EF0FDFE00285E
:1093A00009D101B0231D324629464046BDE8F043AD
:1093B0000EF0F2BE0E20BDE8F883000081FF02002F
:1093C0002DE9F8431D4690460E002AD04DB340B318
:1093D000154F0446009709F0EDFF002822D12B46D7
:1093E00042463146601C009709F0E4FF002819D17D
:1093F0002B4642463146A01C0EF0DBFE002811D160
:109400002B4642463146E01C0EF0D3FE002809D11F
:1094100001B02B4642463146201DBDE8F0430EF018
:10942000C8BE0E20BDE8F883BFFF02002DE9FC4155
:109430001646070010D07EB173B11C460D4601AB35
:109440000EF072FE002808D14FF48070A0800198C1
:1094500040B1216819B105E00E20BDE8FC8107F09C
:1094600049FE2060201D009023463246294638469A
:109470000AF0D3FAF1E72DE9FC411D4617460E002C
:1094800019D0C5B1B8B1044600200190206807F09A
:1094900059FE01902B463A46314601A80EF05BFE7C
:1094A000002806D10095A1883B46324620680AF084
:1094B000CCFABDE8FC810E20FBE7F8B514460600A7
:1094C0000D461ED0ECB100200090631C6A46304669
:1094D0000EF062FE002813D123466A462946304624
:1094E0000EF05AFE00280BD1631D6A46294630460D
:1094F0000EF052FE002803D10099A94200D00920A5
:10950000F8BD0E20F8BD17B581B0144669B164B13D
:10951000002000906B4601A822680EF01CFE002877
:1095200001D10099216004B010BD0E20FBE728B1E5
:1095300011B10078602803D0072070470E207047D3
:10954000012901D0092070470020704713460A46C0
:10955000014660200DF02CB930B412B30BB300B348
:109560000488322C7ED01FDC322C7CD2DFE804F061
:109570007B57547B7B7B7B7B7B7B7B7B7B7B7B7B86
:109580007E785A606369846C87666F7572FD815D51
:10959000FC8D8A969990937B7B7B7B7B7B7B7B7B13
:1095A000ACC10E2030BC7047532C7CD01ADC392C57
:1095B0007AD008DCA4F13304062C54D2DFE804F09E
:1095C0007E9F818A9C90502C6FD006DC3A2C6DD007
:1095D0003B2C6CD03C2C46D197E0512C68D0522CBF
:1095E00041D1A4E0722C7DD00EDC572C7BD006DC60
:1095F000542C79D0552C78D0562C34D18BE0702C4B
:1096000074D0712C2FD19EE0733C052C2BD2DFE857
:1096100004F0A0A3A6A9AF0030BC00F0B6B830BCDF
:1096200000F0FFB830BC01F00FBC30BC01F044BC0E
:1096300030BC02F073B830BC02F000B830BC01F0AE
:1096400055BB30BC01F07CBE30BC01F01BBB30BC54
:1096500001F086BC30BC01F06BBF30BC02F0F6B844
:1096600030BC01E027E08CE001F0A6BD30BC01F089
:10967000BDBC30BC02F098B830BC01F0E8BD30BCD5
:1096800001F018BE30BC01F09FBE30BC01F0E2BE5C
:1096900030BC01F017BF30BC01F092BA30BC01F011
:1096A00053BD30BC05E033E011E03AE02AE014E0BD
:1096B0003AE001F011BD30BC03F090BD30BC03F0C6
:1096C000CBBE30BC03F0FCBD30BC03F0F9BF30BCF6
:1096D00003F086BF30BC04F063B830BC04F044B97A
:1096E00030BC04E032E028E018E023E028E004F099
:1096F000D1B930BC04F0C4B830BC03F04DBE30BCAE
:1097000003F0E4BC30BC03F019BF30BC04F07DB9F9
:1097100030BC04F073BF30BC05F0F0B830BC05F0CD
:1097200083B830BC05F02AB930BC04F0FDBF30BCB2
:1097300005F0A4B830BC04F021BF30BC04F09DBFDC
:1097400030BC06F05BBA30BC06F014BA30BC06F090
:10975000D1B930BC06F0EFB830BC06F07FB930BCF0
:1097600006F0AEB830BC01E008E004E006F015B940
:1097700030BC06F08DBA30BC01F05CB930BC01F0F1
:1097800013BF0620002119600CE72DE9FE431D469A
:109790001646040007D036B12DB12088022804D027
:1097A0000720BDE8FE830E20FBE700270197D5F8D0
:1097B000008002200DF10409ADF808004B46424636
:1097C000314602A80EF096FC0028EAD14B464246EC
:1097D0003146201D0EF08EFC0028E2D14B46424659
:1097E000314604F108000EF0E4FC0028D9D14B46C4
:1097F0004246314604F110000EF07CFC0028D0D126
:1098000000974B4642463146E06807F053FC00287B
:10981000C7D1A08807F076FD0028C2D10199296040
:10982000BFE72DE9FC411D461646040007D036B1BE
:109830002DB12088012804D00720BDE8FC810E202E
:10984000FBE7002000902F680120E846ADF80400F7
:1098500043463A46314601A80EF04CFC0028ECD1B4
:1098600043463A463146201D0EF044FC0028E4D120
:1098700043463A46314604F108000EF09AFC0028AF
:10988000DBD100992960D8E77CB50C4640B12CB1FA
:1098900000230193057801A96D2D03D007207CBD1D
:1098A0000E207CBD0125CDE9003513460A46214630
:1098B00007F0D1FB0028F4D10198A04201D0092083
:1098C0007CBD00207CBD2DE9FF4182B09846144646
:1098D0000F0028D03CB30020009025686D206E4614
:1098E0008DF8040033462A4601A80EF062FC0028D9
:1098F00016D133462A46394602A80EF02CFC002821
:109900000ED1029848B95FEA080039462A46334624
:1099100009D000F05BF8002802D1009820600020F8
:1099200006B0BDE8F0810E20FAE700001CB50C4639
:1099300040B12CB100210191037801A96C2B03D017
:1099400007201CBD0E201CBD01230193074B009373
:1099500013460A46214607F07EFB0028F3D1019802
:10996000A04201D009201CBD00201CBD7D99020031
:1099700013460A4601466C200CF01ABF2DE9FC4143
:109980001646070020D0FEB1F3B11C460D4601ABD0
:109990000EF002FC002815D106200090631C324610
:1099A000294638460EF012FC00280BD19DF8042001
:1099B000217862F3000121709DF80420520862F3BF
:1099C00047012170BDE8FC810E20FBE72DE9FC4139
:1099D0001D4617460E0013D095B188B10446007895
:1099E0008DF8040001A80EF0E4FB002806D13B46E8
:1099F00032460621601C00950EF0FEFBBDE8FC819E
:109A00000E20FBE72DE9F84316465FEA000813D065
:109A100096B18BB1094F1C460D46009709F05CFCCE
:109A2000002807D104F10803324629464046009732
:109A300009F052FCBDE8F8830E20FBE72D940200EC
:109A40002DE9F8431D4690460E0012D08DB180B12D
:109A5000094F0446009709F071FC002807D12B46F6
:109A60004246314604F10800009709F067FCBDE862
:109A7000F8830E20FBE70000779402002DE9FF41F8
:109A8000164607006ED0002E6CD0002B6AD03648E8
:109A900000901C460D46384609F01EFC00285ED199
:109AA00032480090231D32462946384607F0D3FA43
:109AB000002854D104F108033246294638460EF0F6
:109AC00033FB00284BD104F10C03324629463846BB
:109AD0000EF001FB002842D104F10E033246294664
:109AE00038460EF059FB002839D104F10F000290DE
:109AF00005200090019002AB32462946384606F018
:109B000046FD00282BD104F114033246294638467D
:109B10000EF042FB002822D104F1150332462946FB
:109B200038460EF039FB002819D104F116033246ED
:109B3000294638460EF030FB002810D103AB3246E0
:109B4000294638460EF028FB002808D19DF80C2045
:109B5000E17D62F30301120962F30411E17504B0BF
:109B6000BDE8F0810E20FAE7719B02007D990200AA
:109B7000F8B51646070019D0C6B1BBB11C460D4654
:109B80000EF00AFB002810D16B46324629463846B3
:109B90000EF002FB002808D19DF80020617862F3E6
:109BA0000001520862F341016170F8BD0E20F8BD5A
:109BB00038B501B3FBB1F0B10088C0F340050446ED
:109BC00065F35F04C0F3800544EA8504C0F3C00573
:109BD00044EAC504C0F3001544EA0514C0F3411576
:109BE00044EA451420F07F000443ADF80040684685
:109BF0000EF080FA38BD0E2038BD00002DE9FC4182
:109C00001D46089C0E46070037D036B10020019053
:109C100038780DF10408722802D00720BDE8FC81D5
:109C2000012001904AB3106838B335B3286820B3D7
:109C30001CB3206808B313481346009042463846C8
:109C400007F009FA0028E9D10F4800902B46424658
:109C50003146384607F0FFF90028DFD10B48009065
:109C6000234642463146384607F0F5F90028D5D15B
:109C70000198B04203D00920D0E70E20CEE70020A3
:109C8000CCE7000099810300059A02007D9A02004A
:109C90002DE9FF4184B01446DDF838800F0019D05B
:109CA000C4B1002001902568722001AE8DF8080033
:109CB00033462A4602A80EF07CFA00280BD1334620
:109CC0002A46394604A80EF046FA002803D1049823
:109CD00070B903E00E2008B0BDE8F081064800909E
:109CE00033462A463946404607F0E4F90028F2D1C7
:109CF000019820600020EEE7B3810300F8B51F460D
:109D00000C46050008D02CB10020009028786E4643
:109D1000732803D00720F8BD0E20F8BD012013469C
:109D20000090324628460EF037FA0028F5D13B461F
:109D30003246214628460EF02FFA0028EDD1009831
:109D4000A04201D00920F8BD0020F8BD13460A4604
:109D5000014673200CF02CBD38B50C4640B12CB137
:109D60000021009103786946742B03D0072038BD89
:109D70000E2038BD0123009313460A4621460EF0FB
:109D80000BFA0028F5D10098A04201D0092038BD77
:109D9000002038BD13460A46014674200CF008BD69
:109DA0007CB50C46D0B12CB100230193057801A9F4
:109DB000792D01D007207CBD0125019572B1156870
:109DC00065B1009313460A46214607F044F900287E
:109DD000F1D10198A04203D009207CBD0E207CBDAA
:109DE00000207CBD2DE9FF4184B0984614460F0049
:109DF00019D0C4B1002001902568792001AE8DF8FA
:109E0000080033462A4602A80EF0D3F900280BD1E9
:109E100033462A46394604A80EF09DF9002803D19E
:109E2000049870B903E00E2008B0BDE8F08107483F
:109E3000009033462A463946404607F03BF9002851
:109E4000F2D1019820600020EEE70000F5800300C9
:109E500038B50C46B8B12CB10021009103786946A1
:109E6000782B01D0072038BD012300935AB1134647
:109E70000A4621460EF02FF90028F4D10098A0429E
:109E800003D0092038BD0E2038BD002038BD134650
:109E90000A46014678200CF08BBC2DE9FE431F4694
:109EA000DDF828800C46050022D0F4B10020029095
:109EB000287802AE802818D101200290C2B1BFB12B
:109EC0001346324628460EF006F900280ED13B46CE
:109ED0003246214628460EF05FF9002806D1387830
:109EE00040B1012808D0022808D00720BDE8FE8331
:109EF0000E20FBE7002202E0062200E01022009282
:109F00000192434632462146284606F040FB00288F
:109F1000ECD10298A04201D00920E7E70020E5E754
:109F200013460A46014680200CF042BC2DE9FC4154
:109F30001C460D46060025D02DB10020019030783A
:109F400001AF7E2802D00720BDE8FC8101200190EE
:109F5000C2B1BCB12068A8B113463A4630460EF0F3
:109F6000BAF80028F0D10948009023463A4629461D
:109F7000304607F070F80028E6D10198A84203D0D7
:109F80000920E1E70E20DFE70020DDE7B9C9020084
:109F900013460A4601467E200CF00ABC2DE9F0412A
:109FA0001D4617460E000ED06DB160B104460EF08E
:109FB000A1F8002808D12B463A463146A01CBDE83E
:109FC000F0410EF0F6B80E20BDE8F0812DE9FE4319
:109FD00016465FEA000836D0A6B39BB35F891B48DC
:109FE00000901C460D46404609F076F9002827D11E
:109FF00002AB3246294640460EF0CEF800281FD16B
:10A000009DF8080004F1080300F003006070324678
:10A01000294640460EF05FF8002811D104F10A03EA
:10A020003246294640460EF056F8002808D12089CD
:10A03000231DCDE9007032462946404606F0A7FAB6
:10A04000BDE8FE83FFE70E20FAE70000BDA2020094
:10A05000F8B5164607002CD05EB353B31C460D4628
:10A060005B1C0EF099F8002822D1A31C3246294629
:10A0700038460EF091F800281AD1E31C32462946E2
:10A0800038460EF089F8002812D123463246294678
:10A0900038460EF081F800280AD16B463246294630
:10A0A00038460EF079F8002802D19DF80010217191
:10A0B000F8BD0E20F8BD2DE9F041164607000FD07F
:10A0C00076B16BB11C460D460EF066F8002808D13B
:10A0D000A31C324629463846BDE8F0410DF0FBBFCF
:10A0E0000E20BDE8F08100002DE9FC411C460D4624
:10A0F000060025D02DB100200190307801AF7528E1
:10A1000002D00720BDE8FC8101200190C2B1BCB1A2
:10A110002068A8B113463A4630460DF0DCFF00280F
:10A12000F0D10948009023463A462946304606F0C9
:10A1300092FF0028E6D10198A84203D00920E1E768
:10A140000E20DFE70020DDE759A1020013460A4692
:10A15000014675200CF02CBB2DE9F0411646070096
:10A160001FD0F6B1EBB11C460D460DF0B4FF002830
:10A1700018D1A31C3246294638460DF0ACFF002802
:10A1800010D1231D3246294638460DF0A4FF002881
:10A1900008D1A31D324629463846BDE8F0410DF0EE
:10A1A0009ABF0E20BDE8F0812DE9F0411D4617460B
:10A1B0000E001ED0EDB1E0B104460DF09BFF00286B
:10A1C00018D12B463A463146A01C0DF093FF0028CB
:10A1D00010D12B463A463146201D0DF08BFF00284A
:10A1E00008D12B463A463146A01DBDE8F0410DF09E
:10A1F00081BF0E20BDE8F0812DE9FC4198460C4658
:10A20000050021D02CB100260196287801AF8728BF
:10A2100002D00720BDE8FC8101200190A2B11346C5
:10A220003A4628460DF057FF0028F3D143463A46F8
:10A2300021462846009606F00EFF0028EAD1019834
:10A24000A04203D00920E5E70E20E3E70020E1E784
:10A250002DE9FF4184B01C46150088461AD0CCB1C8
:10A26000002001902668872001AF8DF808003B464A
:10A270003246294602A80DF09CFF00280BD13B4630
:10A280003246294604A80DF066FF002803D1049841
:10A2900070B903E00E2008B0BDE8F08106480090D8
:10A2A0003B4632462946404606F004FF0028F2D1DC
:10A2B000019820600020EEE709A3020038B5A0B1A4
:10A2C0009AB193B11C466B460DF066FF00280BD186
:10A2D0009DF80020217862F3030121709DF8002091
:10A2E000120962F30711217038BD0E2038BD08B580
:10A2F00041B13BB130B100788DF8000068460DF0F7
:10A3000058FF08BD0E2008BDF8B51D4617460E00C3
:10A3100012D08DB180B1044608480090204609F063
:10A320000DF8002809D101B02B463A463146601C91
:10A33000BDE8F0400DF03DBF0E20F8BDEFA20200D9
:10A3400013460A4601468D200CF032BA2DE9FC472F
:10A350001D46DDE90A490E46070040D036B100200F
:10A36000019038780DF104088C2802D00720BDE850
:10A37000FC87012001908AB3106878B375B3286810
:10A3800060B35CB3206848B3174813460090424658
:10A39000384606F060FE0028E9D1144800902B46AC
:10A3A00042463146384606F056FE0028DFD11048B6
:10A3B0000090234642463146384606F04CFE0028BF
:10A3C000D5D14B464246314638460DF0E5FE0028D1
:10A3D000CDD10198B04204D00920C8E7FFE70E2094
:10A3E000C5E70020C3E700007D990200B9C4020060
:10A3F00059A1020013460A4601468C200CF0D8B938
:10A400002DE9F0411D4617460E0016D0ADB1A0B1A2
:10A4100004460DF06FFE002810D12B463A46314617
:10A42000A01C0DF067FE002808D12B463A463146A5
:10A43000201DBDE8F0410DF05DBE0E20BDE8F081AD
:10A440002DE9F041164607001FD0F6B1EBB11C46CE
:10A450000D460DF040FE002818D1A31C32462946B7
:10A4600038460DF038FE002810D1231D324629460B
:10A4700038460DF030FE002808D1A31D324629468B
:10A480003846BDE8F0410DF026BE0E20BDE8F08153
:10A490002DE9F0411D4617460E001ED0EDB1E0B18A
:10A4A00004460DF027FE002818D12B463A463146C7
:10A4B000A01C0DF01FFE002810D12B463A46314655
:10A4C000201D0DF017FE002808D12B463A463146D4
:10A4D000A01DBDE8F0410DF00DBE0E20BDE8F081DD
:10A4E0002DE9FC479846DDF828900C46050009D078
:10A4F0002CB100260196287801AF902804D00720BF
:10A50000BDE8FC870E20FBE70120134601903A4688
:10A5100028460DF0E0FD0028F2D10D48009043469A
:10A520003A462146284606F096FD0028E8D14B46DB
:10A530003A4621462846009606F08DFD0028DFD1D8
:10A540000198A04201D00920DAE70020D8E70000F6
:10A5500041A402002DE9FF4184B0984614460F0043
:10A5600019D0C4B1002001902568902001AE8DF86B
:10A57000080033462A4602A80DF01BFE00280BD126
:10A5800033462A46394604A80DF0E5FD002803D1DC
:10A59000049870B903E00E2008B0BDE8F0810748C8
:10A5A000009033462A463946404606F083FD00288F
:10A5B000F2D1019820600020EEE7000001A4020023
:10A5C0002DE9FF5F1D460E9F144688465FEA00098D
:10A5D00042D0B8F1000F07D0002602A8CDE901064D
:10A5E00099F800006F2803D0072004B0BDE8F09F61
:10A5F000012002907CB3206868B3006858B355B35B
:10A60000286840B3006830B33B4641464846019A4B
:10A610000DF0C2FD0028E8D103AB41464846019A3F
:10A620000DF0BAFD0028E0D19DF80C00012815D0EE
:10A63000266003AB41464846019A0DF0ADFD002867
:10A64000D3D19DF80C0001281ED02E6002994145FF
:10A650002DD00920C9E7FFE70E20C6E7D4F800A0F7
:10A660000024DFF850B00BE00AEB8403CDF800B013
:10A6700041464846019A06F0EEFC0028B5D1641C1C
:10A680003878A042F0D8D4E72D6800240A4E0AE0BA
:10A6900005EB8403009641464846019A06F0DBFC30
:10A6A0000028A2D1641C3878A042F1D8CEE700205F
:10A6B0009BE70000D5B8020055B9020013460A46D0
:10A6C00001466F200CF074B82DE9FC4190460C4611
:10A6D000050022D02CB100260196287801AF7D28F4
:10A6E00002D00720BDE8FC8101200190ABB10D48EC
:10A6F00000903A46284606F0AEFC0028F2D14346C8
:10A700003A4621462846009606F0A5FC0028E9D1E5
:10A710000198A04203D00920E4E70E20E2E70020E0
:10A72000E0E70000D78003002DE9FF4784B098469A
:10A73000DDE9107491468A46D7B1CCB10020019072
:10A7400026687D2001AD8DF808002B46324639463B
:10A7500002A80DF02EFD00280BD12B4632463946BB
:10A7600004A80DF0F8FC002803D10498B8B903E060
:10A770000E2008B0BDE8F0870B4800902B4632460B
:10A780003946484606F096FC0028F2D133463A4650
:10A7900041465046009509F058F90028E9D1019842
:10A7A00020600020E5E70000F58003002DE9FC4172
:10A7B0009846089E0C46050027D02CB10020019039
:10A7C000287801AF7C2802D00720BDE8FC81012059
:10A7D0000190D2B1B8F1000F17D0B6B10D481346B1
:10A7E00000903A46284606F036FC0028EDD1434654
:10A7F0003A4621462846009609F00FF90028E4D190
:10A800000198A04203D00920DFE70E20DDE70020F9
:10A81000DBE70000BDA2020013460A4601467C2089
:10A820000BF0C6BFF8B51F460C46050020D02CB172
:10A830000020009028786E46762801D00720F8BDC9
:10A8400001200090A2B19FB11346324628460DF078
:10A8500042FC0028F3D13B463246214628460DF003
:10A860009BFC0028EBD10098A04203D00920F8BD42
:10A870000E20F8BD0020F8BD13460A46014676209A
:10A880000BF096BF2DE9FC411646070020D0FEB123
:10A89000F3B1102000901C460D4638460DF096FC92
:10A8A000002813D101AB3246294638460DF074FC1E
:10A8B00000280BD19DF80410227C4B0861F30002A4
:10A8C00063F34102890861F387022274BDE8FC81C9
:10A8D0000E20FBE72DE9FC411D4617460E001DD05A
:10A8E000E5B1D8B113460A460446102100950DF093
:10A8F00083FC002810D1207C2B46C0F34002014687
:10A9000062F35F0120F0030001438DF804103A4622
:10A91000314601A80DF04DFCBDE8FC810E20FBE79F
:10A92000F8B51646070014D09EB193B10A480090BE
:10A930001C460D46384608F0CFFC002808D10748D1
:10A94000009004F1120332462946384608F0C4FC50
:10A95000F8BD0E20F8BD000085A80200B1BC0200C1
:10A96000F8B51D4617460E0013D095B188B10446C0
:10A9700009480090204608F0E1FC002808D107486B
:10A9800000902B463A46314604F1120008F0D6FCFE
:10A99000F8BD0E20F8BD0000D5A80200DFBC020003
:10A9A0002DE9FC411D46089C0E46070033D036B108
:10A9B0000020019038780DF10408852802D0072086
:10A9C000BDE8FC81012001902AB324B31DB32068A7
:10A9D00008B32868F8B11346424638460DF07BFBB1
:10A9E0000028EDD10E4800902B46424631463846AD
:10A9F00006F031FB0028E3D10A4800902346424686
:10AA00003146384606F027FB0028D9D10198B042DC
:10AA100003D00920D4E70E20D2E70020D0E70000C1
:10AA2000B1BC020085A8020013460A4601468520F3
:10AA30000BF0BEBE2DE9FE431D461646040007D0AE
:10AA400036B12DB120881D2804D00720BDE8FE8333
:10AA50000E20FBE7002001902F681D200DF1040857
:10AA6000ADF8080043463A46314602A80DF042FBD5
:10AA70000028EBD143463A463146201D0DF03AFB03
:10AA80000028E3D10848009043463A46314604F195
:10AA9000080008F049FC0400D8D106F073FB0198C7
:10AAA00028602046D2E70000ADAA02002DE9FC4153
:10AAB0001D4690460E0079D0002D77D0002875D025
:10AAC00004463B480090204608F038FC00286AD134
:10AAD000384F2B4642463146A01C009708F02EFC0A
:10AAE000002860D12B464246314604F10900009708
:10AAF00008F024FC002856D12B464246314604F18A
:10AB000010000DF056FB00284DD12B464246314631
:10AB100004F111000DF04DFB002844D12B464246B4
:10AB2000314604F112000DF044FB00283BD12B46C6
:10AB30004246314604F113000DF03BFB002832D1B0
:10AB40002B464246314604F114000DF032FB00283A
:10AB500029D12B464246314604F115000DF029FB60
:10AB6000002820D1E08A2B46C0F30B00ADF804008A
:10AB70004246314601A80DF0BDFA002813D10E4817
:10AB800000902B464246314604F1180008F0D6FBEF
:10AB9000002808D1094800902B464246314604F16E
:10ABA000200008F0CBFBBDE8FC81FFE70E20FAE7B0
:10ABB000B19B0200CD990200779402009D9F020094
:10ABC0002DE9FE431D461646040007D036B12DB1CF
:10ABD0002088262804D00720BDE8FE830E20FBE74E
:10ABE000002001902F6826200DF10408ADF8080020
:10ABF00043463A46314602A80DF07CFA0028EBD1D4
:10AC000043463A463146201D0DF074FA0028E3D140
:10AC10000648009043463A46314604F1080008F0E1
:10AC200083FB0028D8D101992960D5E731AC020017
:10AC3000F8B51D4617460E001FD0F5B1E8B1044621
:10AC40000DF0B7FA002817D12B463A463146601C62
:10AC50000DF0AFFA00280FD12B463A463146A01C22
:10AC60000DF0A7FA002807D1054800902B463A4678
:10AC70003146201D08F062FBF8BD0E20F8BD000033
:10AC8000419A02002DE9FC411D461646040007D0FA
:10AC900036B12DB12088172804D00720BDE8FC81EB
:10ACA0000E20FBE7002000902F681720E846ADF843
:10ACB000040043463A46314601A80DF01BFA00282D
:10ACC000ECD143463A463146201D0DF013FA0028D8
:10ACD000E4D143463A46314604F108000DF069FAE2
:10ACE0000028DBD100992960D8E700002DE9FF4159
:10ACF0001D461646040008D03EB135B120881928FB
:10AD000005D0072004B0BDE8F0810E20FAE700204E
:10AD100001902F6819200DF10408ADF80800434692
:10AD20003A46314602A80DF0E5F90028EAD143463B
:10AD30003A463146201D0DF0DDF90028E2D11648D3
:10AD4000009043463A46314604F1080008F0ECFA18
:10AD50000028D7D1A08803A906F060FA18B1002016
:10AD600001992960CEE70D48009003980C49C0EB8B
:10AD7000001000EB800001EB800043463A4631466C
:10AD8000001D08F0D1FA0028BCD1A08806F028FAEE
:10AD90000028E5D0B6E70000A5AD02003DC80200DE
:10ADA000EC2502202DE9FC411D4690460E0045D0C1
:10ADB000F5B3E8B341780446C1F38002084662F374
:10ADC0009F00C1F3C00140EAC1008DF80400424673
:10ADD000314620460DF0EDF900282DD12B46424694
:10ADE000314601A80DF0E5F9002825D1144F2B4676
:10ADF00042463146A01C009708F0A0FA00281BD15B
:10AE00002B4642463146E01C009708F097FA00288E
:10AE100012D10C4F2B4642463146201D009708F0B8
:10AE20008DFA002808D12B4642463146601D00E0CD
:10AE300004E0009708F082FABDE8FC810E20FBE7F1
:10AE400079C80200EFC602002DE9FE431D461646F2
:10AE5000040007D036B12DB12088122804D0072075
:10AE6000BDE8FE830E20FBE7002001902F68122032
:10AE70000DF10408ADF8080043463A46314602A8F1
:10AE80000DF038F90028EBD143463A463146201DF3
:10AE90000DF030F90028E3D10648009043463A46C9
:10AEA000314604F1080008F03FFA0028D8D1019992
:10AEB0002960D5E745AF02002DE9FE431D46164641
:10AEC000040007D036B12DB120881F2804D00720F8
:10AED000BDE8FE830E20FBE7002001902F681F20B5
:10AEE0000DF10408ADF8080043463A46314602A881
:10AEF0000DF000F90028EBD143463A463146201DBB
:10AF00000DF0F8F80028E3D10648009043463A4691
:10AF1000314604F1080008F007FA0028D8D1019959
:10AF20002960D5E729AF020038B531B12BB120B186
:10AF3000034C009408F002FA38BD0E2038BD000022
:10AF4000A9A1020038B531B12BB120B1034C009456
:10AF500008F0F4F938BD0E2038BD0000A9A10200A8
:10AF60002DE9FE431D461646040007D036B12DB12B
:10AF700020881A2804D00720BDE8FE830E20FBE7B6
:10AF8000002001902F681A200DF10408ADF8080088
:10AF900043463A46314602A80DF0ACF80028EBD102
:10AFA00043463A463146201D0DF0A4F80028E3D16F
:10AFB0000648009043463A46314604F1080008F03E
:10AFC000B3F90028D8D101992960D5E7D1AF0200A3
:10AFD00038B531B12BB120B1034C009408F0AEF973
:10AFE00038BD0E2038BD000009A302002DE9FE4344
:10AFF0001D461646040007D036B12DB12088102812
:10B0000004D00720BDE8FE830E20FBE7002001905E
:10B010002F6810200DF10408ADF8080043463A46A9
:10B02000314602A80DF066F80028EBD143463A46B7
:10B030003146201D0DF05EF80028E3D1064800904F
:10B0400043463A46314604F1080008F06DF90028FD
:10B05000D8D101992960D5E75DB00200F8B51D4649
:10B0600017460E0030D075B368B3044617480090F9
:10B07000204608F063F9002824D12B463A46314691
:10B08000E01D0DF096F800281CD1114800902B46C9
:10B090003A46314604F1080008F050F9002811D171
:10B0A0002B463A46314604F110000DF082F8002894
:10B0B00008D1084800902B463A46314604F1140066
:10B0C00008F03CF9F8BDFFE70E20FBE7CD99020040
:10B0D000A9A10200419A02002DE9FE431D46164631
:10B0E000040007D036B12DB12088242804D00720D1
:10B0F000BDE8FE830E20FBE7002001902F6824208E
:10B100000DF10408ADF8080043463A46314602A85E
:10B110000CF0F0FF0028EBD143463A463146201DA3
:10B120000CF0E8FF0028E3D10648009043463A4679
:10B13000314604F1080008F0F7F80028D8D1019949
:10B140002960D5E791A402002DE9FE431D4616466D
:10B15000040007D036B12DB12088232804D0072061
:10B16000BDE8FE830E20FBE7002001902F6823201E
:10B170000DF10408ADF8080043463A46314602A8EE
:10B180000CF0B8FF0028EBD143463A463146201D6B
:10B190000CF0B0FF0028E3D10648009043463A4641
:10B1A000314604F1080008F0BFF80028D8D1019911
:10B1B0002960D5E791A402002DE9FF411D461646FE
:10B1C000040008D03EB135B12088112805D00720F1
:10B1D00004B0BDE8F0810E20FAE7002001902F684E
:10B1E00011200DF10408ADF8080043463A463146F7
:10B1F00002A80CF07FFF0028EAD143463A463146C8
:10B20000201D0CF077FF0028E2D10C480090434647
:10B210003A46314604F1080008F086F80028D7D1F4
:10B22000A08803A905F0FAFF20B9A08805F0D8FF8F
:10B230000028CDD1019900202960C9E741B2020060
:10B2400019B113B108B10CF0B4BF0E2070472DE94D
:10B25000FC411D461646040007D036B12DB12088AA
:10B26000162804D00720BDE8FC810E20FBE7002053
:10B2700000902F681620E846ADF8040043463A4691
:10B28000314601A80CF036FF0028ECD143463A467F
:10B290003146201D0CF02EFF0028E4D143463A46EB
:10B2A000314604F108000CF084FF0028DBD100993E
:10B2B0002960D8E72DE9FF411D461646040008D055
:10B2C0003EB135B12088182805D0072004B0BDE86C
:10B2D000F0810E20FAE7002001902F6818200DF170
:10B2E0000408ADF8080043463A46314602A80CF07F
:10B2F00001FF0028EAD1207B434600F001008DF8D1
:10B300000C003A463146201D0CF0F4FE0028DDD139
:10B310000A48009043463A463146A06805F0CAFE06
:10B320000028D3D143463A46314603A80CF041FFEA
:10B330000028CBD101992960C8E7000097BC020022
:10B340002DE9FF411D46904604000AD0B8F1000FD8
:10B3500007D035B12088152805D0072004B0BDE8F6
:10B36000F0810E20FAE7002001902F68152001AE31
:10B37000ADF8080033463A46414602A80CF0BAFE42
:10B380000028EBD1A07B334600F001008DF80C00C3
:10B390003A464146201D0CF0ADFE0028DED13B466A
:10B3A0004246062104F1080000960CF025FF002813
:10B3B000D4D133463A46414603A80CF0FAFE0028A1
:10B3C000CCD101992960C9E72DE9FC411D461646FB
:10B3D000040007D036B12DB12088222804D00720E0
:10B3E000BDE8FC810E20FBE7002000902F682220A2
:10B3F000E846ADF8040043463A46314601A80CF051
:10B4000079FE0028ECD143463A463146201D0CF027
:10B4100071FE0028E4D143463A46314604F1080063
:10B420000CF0C7FE0028DBD143463A46314604F112
:10B4300009000CF0BEFE0028D2D143463A46314600
:10B4400004F10A000CF0B5FE0028C9D1009929606A
:10B45000C6E700002DE9FE431D461646040007D04E
:10B4600036B12DB12088212804D00720BDE8FE8305
:10B470000E20FBE7002001902F6821200DF1040829
:10B48000ADF8080043463A46314602A80CF032FEB9
:10B490000028EBD143463A463146201D0CF02AFEE7
:10B4A0000028E3D10648009043463A46314604F16D
:10B4B000080007F039FF0028D8D101992960D5E7A5
:10B4C00095BF02002DE9FE431D469046040009D0B9
:10B4D000B8F1000F06D02DB12088252804D0072010
:10B4E000BDE8FE830E20FBE7002001902F68252099
:10B4F00001AEADF8080033463A46414602A80CF0CA
:10B50000F9FD0028ECD133463A464146201D0CF0A7
:10B51000F1FD0028E4D13B464246282104F1080011
:10B5200000960CF069FE0028DAD101992960D7E76E
:10B530002DE9FC411D461646040007D036B12DB159
:10B5400020881C2804D00720BDE8FC810E20FBE7E2
:10B55000002000902F681C20E846ADF80400434608
:10B560003A46314601A80CF0C5FD0028ECD143460F
:10B570003A463146201D0CF0BDFD0028E4D143467B
:10B580003A46314604F108000CF013FE0028DBD1E6
:10B5900043463A46314604F109000CF00AFE002801
:10B5A000D2D100992960CFE72DE9FE431D4616460A
:10B5B000040007D036B12DB12088202804D0072000
:10B5C000BDE8FE830E20FBE7002001902F682020BD
:10B5D0000DF10408ADF8080043463A46314602A88A
:10B5E0000CF088FD0028EBD143463A463146201D39
:10B5F0000CF080FD0028E3D143463A46314604F181
:10B6000008000CF0D6FD0028DAD10B480090434624
:10B610003A46314604F10A0007F086FE0028CFD1F1
:10B6200043463A46314604F109000CF0C2FD0028B9
:10B63000C6D101992960C3E7CD9902002DE9FE43E7
:10B640001D461646040007D036B12DB120881428B7
:10B6500004D00720BDE8FE830E20FBE70020019008
:10B660002F6814200DF10408ADF8080043463A464F
:10B67000314602A80CF03EFD0028EBD143463A4685
:10B680003146201D0CF036FD0028E3D1064800901D
:10B6900043463A46314604F1080007F045FE0028CB
:10B6A000D8D101992960D5E7ADB602002DE9FC415A
:10B6B0001D4617460E002AD04DB340B30446807C89
:10B6C000C0F34002014662F35F01C0F3800041EA2B
:10B6D00080008DF804000F4800903A46314620461D
:10B6E00007F02CFE002810D10B4800902B463A465C
:10B6F000314604F1080007F021FE002805D12B4651
:10B700003A46314601A80CF054FDBDE8FC810E20FC
:10B71000FBE70000CD990200DFBC02002DE9FE43EB
:10B720001D461646040007D036B12DB120881328D7
:10B7300004D00720BDE8FE830E20FBE70020019027
:10B740002F6813200DF10408ADF8080043463A466F
:10B75000314602A80CF0CEFC0028EBD143463A4615
:10B760003146201D0CF0C6FC0028E3D106480090AD
:10B7700043463A46314604F1080007F0D5FD00285B
:10B78000D8D101992960D5E78DB7020038B531B11C
:10B790002BB120B1034C009407F0D0FD38BD0E2032
:10B7A00038BD000075CA02002DE9FE431D4616464D
:10B7B000040007D036B12DB120881E2804D0072000
:10B7C000BDE8FE830E20FBE7002001902F681E20BD
:10B7D0000DF10408ADF8080043463A46314602A888
:10B7E0000CF088FC0028EBD143463A463146201D38
:10B7F0000CF080FC0028E3D10648009043463A460E
:10B80000314604F1080007F08FFD0028D8D10199D6
:10B810002960D5E719B8020038B5A9B1A3B198B12C
:10B820000078C0F34005044665F35F04C0F380056B
:10B8300044EA8504C0F3C00044EAC0008DF800006B
:10B8400068460CF0B6FC38BD0E2038BD2DE9FE432D
:10B850001D461646040007D036B12DB120881B289E
:10B8600004D00720BDE8FE830E20FBE700200190F6
:10B870002F681B200DF10408ADF8080043463A4636
:10B88000314602A80CF036FC0028EBD143463A467C
:10B890003146201D0CF02EFC0028E3D143463A46E9
:10B8A000314604F108000CF084FC0028DAD1217A3A
:10B8B00001290AD10648009043463A46314604F130
:10B8C0000C0007F031FD0028CCD101992960C9E7AF
:10B8D00077940200F8B51646070014D09EB193B1D4
:10B8E0000A4800901C460D46384607F0F5FC002833
:10B8F00008D10748009004F1100332462946384623
:10B9000007F0EAFCF8BD0E20F8BD000055B90200B2
:10B910007D990200F8B51D4617460E0013D095B16B
:10B9200088B1044609480090204607F007FD00282A
:10B9300008D1074800902B463A46314604F11000E2
:10B9400007F0FCFCF8BD0E20F8BD00006BB902004A
:10B95000CD99020038B530B12AB123B1102400943A
:10B960000CF034FC38BD0E2038BD08B541B13BB1F8
:10B9700030B1009313460A4610210CF03DFC08BD7F
:10B980000E2008BDF8B51F460C46050020D02CB18E
:10B990000020009028786E46822801D00720F8BD4C
:10B9A00001200090A2B19FB11346324628460CF008
:10B9B00092FB0028F3D13B463246214628460CF044
:10B9C000EBFB0028EBD10098A04203D00920F8BD82
:10B9D0000E20F8BD0020F8BD13460A46014682201D
:10B9E0000AF0E6BE2DE9FC411F460C46050023D0B7
:10B9F0002CB100200190287801AE812802D00720C8
:10BA0000BDE8FC8101200190B2B1AFB113463246CE
:10BA100028460CF060FB0028F2D1094800903B4614
:10BA200032462146284605F016FB0028E8D1019849
:10BA3000A04203D00920E3E70E20E1E70020DFE782
:10BA400051BA020013460A46014681200AF0B0BEF0
:10BA500038B530B12AB123B1202400940CF0B6FBE4
:10BA600038BD0E2038BD00002DE9FC479846DDF8B2
:10BA700028900C46050031D02CB10026019628787C
:10BA800001AF832802D00720BDE8FC870120019088
:10BA900022B35FEA090021D0B8F1000F1ED013468F
:10BAA0003A4628460CF017FB0028EDD10D480090CF
:10BAB00043463A462146284605F0CDFA0028E3D110
:10BAC0004B463A4621462846009605F0C4FA00281F
:10BAD000DAD10198A04203D00920D5E70E20D3E7A0
:10BAE0000020D1E781BC02002DE9FF4184B01C4653
:10BAF000150088461AD0CCB100200190266883201A
:10BB000001AF8DF808003B463246294602A80CF0EA
:10BB100050FB00280BD13B463246294604A80CF0C6
:10BB20001AFB002803D1049870B903E00E2008B076
:10BB3000BDE8F081064800903B4632462946404623
:10BB400005F0B8FA0028F2D1019820600020EEE755
:10BB500035BC02002DE9FC479846DDF828900C46DC
:10BB6000050031D02CB100200190287801AE842846
:10BB700002D00720BDE8FC870120019022B3B8F174
:10BB8000000F21D05FEA09001ED013463246284636
:10BB90000CF0A1FA0028EDD10D4F43463246214664
:10BBA0002846009705F057FA0028E3D14B46324665
:10BBB00021462846009705F04EFA0028DAD1019870
:10BBC000A04203D00920D5E70E20D3E70020D1E71B
:10BBD000E1BB020013460A46014684200AF0E8BD94
:10BBE0002DE9F84316465FEA00081ED0EEB1E3B136
:10BBF0000F4800901C460D46404607F06DFB00289C
:10BC000011D11027E31D32462946404600970CF01B
:10BC1000DDFA002807D104F11703324629464046D1
:10BC200000970CF0D3FABDE8F8830E20FBE7000084
:10BC30007D990200F8B51D4617460E001BD0D5B100
:10BC4000C8B104460D480090204607F077FB002855
:10BC500010D13B4632461021E01D00950CF0CCFA85
:10BC6000002807D13B463246102104F11700009509
:10BC70000CF0C2FAF8BD0E20F8BD0000CD9902000C
:10BC800038B530B12AB123B1402400940CF09EFAAB
:10BC900038BD0E2038BD08B541B13BB130B100937D
:10BCA00013460A4640210CF0A7FA08BD0E2008BD35
:10BCB000F8B51646070010D07EB173B11C460D468C
:10BCC0000CF009FA002807D108200090A31C324686
:10BCD000294638460CF07AFAF8BD0E20F8BDF8B5C2
:10BCE0001D4617460E000ED06DB160B104460CF033
:10BCF00001FA002806D13B4632460821A01C0095D7
:10BD00000CF07AFAF8BD0E20F8BD2DE9F041164688
:10BD100007000FD076B16BB11C460D460CF0DBF975
:10BD2000002808D1A31C324629463846BDE8F04118
:10BD30000CF0D1B90E20BDE8F0812DE9F0411D468F
:10BD400017460E000ED06DB160B104460CF0D2F96A
:10BD5000002808D12B463A463146A01CBDE8F041E8
:10BD60000CF0C8B90E20BDE8F081F8B51646070002
:10BD700010D07EB173B11C460D460CF0ACF9002812
:10BD800007D105200090A31C3246294638460CF006
:10BD90001DFAF8BD0E20F8BDF8B51D4617460E0079
:10BDA0000ED06DB160B104460CF0A4F9002806D1A4
:10BDB0003B4632460521A01C00950CF01DFAF8BD4B
:10BDC0000E20F8BD38B558B152B14BB11C466B4688
:10BDD0000CF0E2F9002802D19DF80010217038BD66
:10BDE0000E2038BD08B551B14BB140B1007800F01C
:10BDF00001008DF8000068460CF0DBF908BD0E204C
:10BE000008BD0000F8B51646070018D0BEB1B3B1A2
:10BE10001C460D460CF05FF900280FD1A31C3246DA
:10BE2000294638460CF057F9002807D105480090FC
:10BE3000231D32462946384605F00DF9F8BD0E207F
:10BE4000F8BD0000D7800300F8B51D4617460E0068
:10BE500017D0B5B1A8B104460CF04CF900280FD1A9
:10BE60002B463A463146A01C0CF044F9002807D175
:10BE7000054800902B463A463146606805F01AF9AD
:10BE8000F8BD0E20F8BD0000F58003001CB538B1E8
:10BE900032B12BB106240094019404F078FB1CBD50
:10BEA0000E201CBD08B549B143B138B1009313460B
:10BEB0000A460068062104F09CFB08BD0E2008BD60
:10BEC000F8B51646070013D096B18BB11C460D4647
:10BED0000CF001F900280AD16B4632462946384653
:10BEE0000CF05AF9002802D19DF80010A170F8BD9D
:10BEF0000E20F8BD2DE9FC411C460D46060025D05C
:10BF00002DB100200190307801AF8F2802D007209A
:10BF1000BDE8FC8101200190C2B1BCB12068A8B18C
:10BF200013463A4630460CF0D6F80028F0D10948BE
:10BF3000009023463A462946304605F08CF8002802
:10BF4000E6D10198A84203D00920E1E70E20DFE7FF
:10BF50000020DDE765BF020013460A4601468F2038
:10BF60000AF026BC2DE9F041164607000FD076B145
:10BF70006BB11C460D460CF00FF9002808D1631C6C
:10BF8000324629463846BDE8F0410CF005B90E208E
:10BF9000BDE8F0812DE9F0411D4617460E000ED098
:10BFA0006DB160B104460CF004F9002808D12B46AD
:10BFB0003A463146601CBDE8F0410CF0FAB80E205C
:10BFC000BDE8F0817CB50C46E0B12CB100230193B3
:10BFD000057801A97B2D01D007207CBD01250195A5
:10BFE00082B1156875B1022C0AD3009313460A4634
:10BFF000214605F030F80028EFD10198A04203D087
:10C0000009207CBD0E207CBD00207CBD2DE9FF41B8
:10C0100084B0984614460F0019D0C4B10020019096
:10C0200025687B2001AE8DF8080033462A4602A819
:10C030000CF0BFF800280BD133462A46394604A835
:10C040000CF089F8002803D1049870B903E00E20A1
:10C0500008B0BDE8F0810748009033462A463946CB
:10C06000404605F027F80028F2D101982060002012
:10C07000EEE70000A9A102001CB50C46C8B12CB126
:10C0800000210191037801A97A2B01D007201CBD62
:10C09000012301936AB1094B009313460A462146D6
:10C0A00004F0D9FF0028F2D10198A04203D0092062
:10C0B0001CBD0E201CBD00201CBD000059A10200AB
:10C0C00013460A4601467A200AF072BB1CB50C469C
:10C0D00040B12CB100210191037801A9712B03D04B
:10C0E00007201CBD0E201CBD01230193074B0093AC
:10C0F00013460A46214604F0AEFF0028F3D101980A
:10C10000A04201D009201CBD00201CBD7DC1020041
:10C110002DE9FF4184B0984614460F0019D0C4B1F0
:10C12000002001902568712001AE8DF8080033468B
:10C130002A4602A80CF03DF800280BD133462A46C7
:10C14000394604A80CF007F8002803D1049870B908
:10C1500003E00E2008B0BDE8F081074800903346A8
:10C160002A463946404604F0A5FF0028F2D101983E
:10C1700020600020EEE70000D1C10200F8B51646AD
:10C18000070020D0FEB1F3B11C460D460CF004F8B8
:10C19000002817D1631C3246294638460BF0FCFFB5
:10C1A00000280FD1A31C3246294638460BF093FFD6
:10C1B000002807D105480090231D324629463846FD
:10C1C00004F049FFF8BD0E20F8BD000055B902008B
:10C1D000F8B51D4617460E001FD0F5B1E8B104466C
:10C1E0000BF0E7FF002817D12B463A463146601C7A
:10C1F0000BF0DFFF00280FD12B463A463146A01C3A
:10C200000BF078FF002807D1054800902B463A46EE
:10C210003146606804F04EFFF8BD0E20F8BD000006
:10C220006BB902001CB50C4640B12CB10021019144
:10C23000037801A9702B03D007201CBD0E201CBD64
:10C2400001230193074B009313460A46214604F04D
:10C2500002FF0028F3D10198A04201D009201CBDA3
:10C2600000201CBD7DC1020013460A460146702015
:10C270000AF09EBA38B50C46B8B12CB10021009135
:10C2800003786946912B01D0072038BD0123009324
:10C290005AB113460A4621460BF046FF0028F4D156
:10C2A0000098A04203D0092038BD0E2038BD0020E0
:10C2B00038BD13460A46014691200AF079BA28B1E2
:10C2C00011B10078922803D0072070470E207047E4
:10C2D000012901D0092070470020704713460A4603
:10C2E000014692200AF064BA2DE9FC471D460A9CDB
:10C2F0000E46070035D046B14FF00008CDF8048057
:10C3000038780DF104098E2802D00720BDE8FC879B
:10C31000012001902AB325B3286810B313464A467A
:10C3200038460BF0D8FE0028F0D12B464A4631465D
:10C330003846CDF8008004F08EFE0028E6D184B1A6
:10C34000206870B123464A4631463846CDF8008011
:10C3500004F081FE0028D9D10198B04203D0092011
:10C36000D4E70E20D2E70020D0E700002DE9FF47F8
:10C3700084B09946DDF840A014465FEA01081AD05F
:10C38000CCB10020019026688E2001AF8DF8080006
:10C390003B463246414602A80BF00BFF00280BD16A
:10C3A0003B463246414604A80BF0D5FE002803D197
:10C3B0000498B8B903E00E2008B0BDE8F0870B4D33
:10C3C0003B46324641464846009504F073FE00283D
:10C3D000F2D13B46324641465046009504F06AFE93
:10C3E0000028E9D1019820600020E5E7B38103002F
:10C3F0002DE9F8431F46DDF820800C4605002CD0BF
:10C400002CB10020009028786E46882802D00720A2
:10C41000BDE8F88301200090FAB1F7B15FEA0800A7
:10C420001BD01346324628460BF055FE0028EFD1AC
:10C430003B463246214628460BF0AEFE0028E7D1A7
:10C4400043463246214628460BF0A6FE0028DFD19F
:10C450000098A04203D00920DAE70E20D8E7002098
:10C46000D6E713460A46014688200AF0A1B938B536
:10C470000C46B8B12CB10021009103786946892B94
:10C4800001D0072038BD012300935AB113460A4654
:10C4900021460BF020FE0028F4D10098A04203D0E2
:10C4A000092038BD0E2038BD002038BD13460A468D
:10C4B000014689200AF07CB92DE9FF4116460700A4
:10C4C00052D0002E50D0EBB31C460D4602AB0BF001
:10C4D00063FE002845D19DF808102078631C61F3A5
:10C4E000000020709DF808103246490861F34100B1
:10C4F00020709DF80810890861F3820020709DF873
:10C500000810C90861F3C4002070294638460BF0B2
:10C5100043FE002825D104F1080003900520009077
:10C52000019003AB32462946384604F030F8002823
:10C5300017D1A31C3246294638460BF0CCFD002803
:10C540000FD100E010E0231D3246294638460BF09B
:10C55000C2FD002805D1A31D3246294638460BF0FE
:10C56000BAFD04B0BDE8F0810E20FAE72DE9FC41E8
:10C570001F460C46050026D02CB1002001902878DB
:10C5800001AE8A2802D00720BDE8FC81012001907D
:10C59000CAB11068B8B10E4813460090324628461A
:10C5A00004F059FD0028EFD10A4800903B4632467E
:10C5B0002146284604F04FFD0028E5D10198A0420D
:10C5C00003D00920E0E70E20DEE70020DCE70000D2
:10C5D000B9C402002D94020001468A200AF0E8B88E
:10C5E00013460A4601468B200AF0E2B82DE9FC47C3
:10C5F0001E46DDE90A540F465FEA000842D03FB10B
:10C600000020019098F800000DF10409862802D05E
:10C610000720BDE8FC870120019092B38EB385B35B
:10C620007CB3306868B3286858B3206848B31346B1
:10C630004A4640460BF04FFD0028EAD113480090CF
:10C6400033464A463946404604F005FD0028E0D10D
:10C650000F4800902B464A463946404604F0FBFC02
:10C660000028D6D10B48009023464A46394640461A
:10C6700004F0F1FC0028CCD10198B84204D0092084
:10C68000C7E7FFE70E20C4E70020C2E785A8020045
:10C6900055B9020015CB020013460A460146862012
:10C6A0000AF086B838B500B3FAB1F3B11C466B4650
:10C6B0000BF072FD002817D19DF80020217862F35D
:10C6C000000121709DF80020520862F341012170A1
:10C6D0009DF80020920862F3820121709DF80020ED
:10C6E000D20862F3C301217038BD0E2038BD38B5C1
:10C6F000A9B1A3B198B10078C0F34005044665F331
:10C700005F04C0F3800544EA8504C0F3C00044EA36
:10C71000C0008DF8000068460BF04BFD38BD0E20C0
:10C7200038BD0000F8B51646070029D046B33BB324
:10C73000144800901C460D46384604F08CFC002836
:10C740001DD111480090231D32462946384604F079
:10C7500082FC002813D10D48009004F108033246F2
:10C760002946384604F077FC002808D10848009094
:10C7700004F10C0332462946384604F06CFCF8BD3F
:10C780000E20F8BD21A90200D5B8020015CB020089
:10C7900081BC0200F8B51D4617460E0026D02DB309
:10C7A00020B3044612480090206804F083FC00285F
:10C7B0001BD1104800902B463A463146606804F081
:10C7C00079FC002811D10C4800902B463A4631469E
:10C7D000A06804F06FFC002807D1084800902B46A1
:10C7E0003A463146E06804F065FCF8BD0E20F8BD1D
:10C7F00061A9020015B902002BCB020097BC020010
:10C800002DE9F84316465FEA000813D096B18BB1C4
:10C81000094F1C460D46009706F05EFD002807D123
:10C8200004F11003324629464046009706F054FDB5
:10C83000BDE8F8830E20FBE725C702002DE9F84389
:10C840001D4690460E0012D08DB180B1094F0446AE
:10C85000009706F073FD002807D12B46424631466B
:10C8600004F11000009706F069FDBDE8F8830E2082
:10C87000FBE7000095C7020038B5A9B1A3B198B194
:10C880000078C0F34005044665F35F04C0F38005FB
:10C8900044EA8504C0F3C00044EAC0008DF80000FB
:10C8A00068460BF086FC38BD0E2038BD2DE9FC47EC
:10C8B0009846DDE90A540E4607003FD036B1002005
:10C8C000019038780DF104097F2802D00720BDE8D7
:10C8D000FC870120019082B3B8F1000F2ED065B320
:10C8E000286850B34CB3206838B313464A463846DC
:10C8F0000BF0F1FB0028EAD143464A463146384660
:10C900000BF04AFC0028E2D10E4800902B464A4624
:10C910003146384604F09FFB0028D8D10A480090E1
:10C9200023464A463146384604F095FB0028CED1CE
:10C930000198B04204D00920C9E7FFE70E20C6E7FE
:10C940000020C4E7B9C9020001C802002DE9FF4177
:10C9500084B0984614460F0019D0C4B1002001904D
:10C9600025687F2001AE8DF8080033462A4602A8CC
:10C970000BF01FFC00280BD133462A46394604A889
:10C980000BF0E9FB002803D1049870B903E00E20F6
:10C9900008B0BDE8F0810748009033462A46394682
:10C9A000404604F087FB0028F2D101982060002067
:10C9B000EEE700003DC802002DE9FC4116465FEAA3
:10C9C000000853D0002E51D0002B4FD01C460D46EE
:10C9D00001AB0BF0E1FB002846D1631C324629462F
:10C9E00040460BF0D9FB00283ED1A31C3246294615
:10C9F00040460BF0D1FB002836D11D4FE31C3246D8
:10CA000029464046009706F067FC00282CD1231DDC
:10CA1000324629464046009706F05EFC002823D1A6
:10CA20009DF80420217862F3000121709DF8042014
:10CA3000520862F3410121709DF80420920862F3CC
:10CA4000820121709DF80420D20862F3C301217095
:10CA50009DF80420120962F3061121709DF804204C
:10CA6000D20962F3C7112170BDE8FC810E20FBE7FB
:10CA7000A5C602002DE9FC411D4690460E0045D09A
:10CA8000F5B3E8B304460078C0F34002014662F310
:10CA90005F01C0F3800241EA8201C0F3C00241EAB3
:10CAA000C201C0F3021241EA021120F07F000143EB
:10CAB0008DF804104246314601A80BF07AFB00289D
:10CAC00022D12B4642463146601C0BF072FB0028F7
:10CAD0001AD12B4642463146A01C0BF06AFB0028B7
